:020000040800F2
:10000000FC9701201D5C0008655C0008655C000829
:10001000655C0008655C0008655C00080000000085
:10002000000000000000000000000000655C000807
:10003000655C000800000000655C0008991A000873
:10004000655C0008655C0008655C0008655C00088C
:10005000655C0008655C0008655C0008655C00087C
:10006000655C0008655C0008655C0008791600089E
:10007000655C0008655C0008655C0008655C00085C
:10008000655C0008655C0008655C0008655C00084C
:10009000655C0008655C0008655C0008655C00083C
:1000A000655C0008655C0008655C0008655C00082C
:1000B000655C0008655C0008655C0008655C00081C
:1000C000655C0008655C0008655C0008655C00080C
:1000D000655C0008655C0008655C0008655C0008FC
:1000E000655C0008655C0008655C000800000000B5
:1000F000655C0008655C000800000000000000006E
:10010000000000000000000000000000655C000826
:10011000655C0008655C00081D170008655C000848
:10012000655C0008655C0008655C0008655C0008AB
:10013000655C0008000000000000000000000000F6
:100140000000000000000000000000003D19000851
:10015000655C0008655C000800000000655C000844
:10016000655C0008655C0008655C0008655C00086B
:10017000655C000843190008000000000000000052
:1001800000000000655C0008655C0008655C000814
:1001900000000000655C0008000000000000000096
:1001A000000000000000000000000000000000004F
:1001B000655C000800000000655C000800000000AD
:1001C000000000000000000000000000000000002F
:1001D000000000000000000000000000655C000856
:1001E000034613F8012B002AFBD1181A0138704777
:1001F00053B94AB9002908BF00281CBF4FF0FF318E
:100200004FF0FF3000F00CB8ADF1080C6DE904CEF2
:1002100006F0E6FADDF804E0DDE9022304B07047F9
:10022000704700BF0348044B834202D0034B03B125
:10023000184770470807002008070020000000004A
:100240000548064B1B1AD90F01EBA301491002D038
:10025000034B03B118477047080700200807002028
:100260000000000010B5064C237843B9FFF7DAFF11
:10027000044B13B10448AFF300800123237010BD79
:100280000807002000000000D86A000808B5054BE8
:100290001BB105490548AFF30080BDE80840FFF7F2
:1002A000CFBF00BF000000000C070020D86A000884
:1002B00030B599B103890F2B10D86FF0080500F104
:1002C00009022D1AAC18A34204D8C2180133917246
:1002D000038103E012F8014F8C42F3D130BD0000DE
:1002E00070B5194B196891F87E3040F2B76202FB85
:1002F00003110020154B0246FF2591F84A42013CAC
:10030000042C08D8DFE804F0030F15171B005A70FF
:100310001A70DA709A700130392801F10C0103F17A
:100320001C03EAD170BD1A705A709A70DA701A7193
:10033000F1E71A60FBE71A601A715A71EBE71A606D
:100340009A809D711A81E6E7900E00202C0700200C
:10035000F8B56FF0080704460E4600F109053F1A8C
:1003600022897B199A4206D8FF220023A2712360BA
:10037000A3802381F8BD15F8011F304601F0B0FDC0
:10038000EEE770B502890446002309309A4210D97D
:1003900010F8016F8E4203F101050BD104F10A0040
:1003A000013AD21A4119184405F0E5FB2389013BB3
:1003B000238170BD2B46E9E713062DE9F04705467A
:1003C0000F46164603D5FF238371BDE8F087DFF89B
:1003D0009080D8F8004094F87E90827140F2B76A1D
:1003E00001F054FB06F58E760AFB09F909EB860944
:1003F0004C44286094F8853003F00703022B0FD09B
:10040000032B21D0012BE0D194F88410384601F061
:10041000FBFC94F884102846BDE8F047FFF748BF7E
:1004200094F88410384601F0EFFC94F884102846C4
:10043000FFF73EFFD8F8003093F87E200AFB023326
:1004400093F83637AB80C0E794F88410384601F053
:1004500047FD94F884102846BDE8F047FFF791BFA8
:10046000900E0020FFF73CBF2DE9F8431B4D1C4EBA
:100470000024A9460C2740F2B768336893F87E2021
:1004800008FB02F207FB0422134493F84A22042AD1
:1004900015D0052A1CD0032A08D12A79022A05D1B1
:1004A00093F84C1293F8490201F01AFD0134392CEB
:1004B00005F11C05E1D1BDE8F843FFF711BF1C228F
:1004C00002FB04929288002AF0D093F84B12E9E7DD
:1004D00093F849122846FFF73BFFE7E72C07002077
:1004E000900E00202DE9F04FC478382C85B00546D9
:1004F0007FD8BC4B1F6897F87E6040F2B7630C2131
:1005000003FB06F201FB04223A4492F84A8208F106
:10051000FF32042A6DD8DFE812F00500F5008901EA
:10052000D3011102734301FB04333B4495F801B03E
:1005300093F849A2297893F84B22DFF8AC828DF822
:1005400008A0BAEB0B0918BF4FF0010901298DF87B
:1005500009204FF01C034FD0042953D01C2303FB68
:1005600004839978DB78003918BF0121003B18BF5C
:1005700001238DF80C108DF80D30E1B1DBB140F2A4
:10058000B7630C21734301FB04333B4493F84D12D2
:10059000002954D0954B0A2000FB0A3C00FB023393
:1005A0009CF806209B79934228BF1346994246D86F
:1005B00001238DF80C301C2303AF03FB048402AD30
:1005C000002614F8013B17F8012B012B00F08E8058
:1005D000002A00F08B806178287801F015FC012357
:1005E00004F8013C731C022B05F101054FF00106D4
:1005F000E7D105B0BDE8F08F03FB0483A9784B4435
:100600009970ABE703FB048303EB090113F80900BE
:1006100078B1CDE9002309F110030DEB03008978CF
:1006200010F8080C01F05CFC019B009A002103F813
:1006300009101C2303FB04834B440021E0E740F234
:10064000B7630C22734302FB04333B4493F84C2200
:10065000042A1FD109F110020DEB0209634B19F8AE
:10066000082C0A2101FB0232907904AADA4508BF5E
:10067000013212F8085C01FB05339B7998422CBFCC
:100680000123002309F8043C34BF0123002302F8AE
:10069000043C90E72B78012B21D1D11E02F1FF35CC
:1006A00018BF0121961E6B426B4170427041DA45C2
:1006B00018BF0346002A08BF43F0010309F11002E6
:1006C0000DEB02090B4004AA09F8043CDA4508BF07
:1006D000013283F00103194002F8041C6BE71C236C
:1006E000634338F80330ADF80C3064E7012A3FF477
:1006F00079AF002B3FF476AF6178287801F0F0FBFA
:1007000000236DE76878394BDFF8DC900A2202FBA2
:1007100000330C219A7940F2B763734301FB043331
:100720003B441C2101FB049193F853E20B79724581
:1007300034BF4FF0000C4FF0010C012B5AD0BCF12C
:10074000000F57D001230B71B8F1040118BF01212C
:1007500001F084FE40F2B7635E4308F1FF380C23DA
:1007600006F24A2603FB04660FFA88F81C2303FBF3
:1007700004944FEA48083E444FF0000916F801AFD0
:10078000BAF1000F26D0337943FA08F313F00307C8
:100790005FFA83FB1ED023782BB16878514601F0B5
:1007A0009FFB002323701BF0010F13D010486B78C0
:1007B0004370012F14BF032201220021C170027077
:1007C00080F802A000F0E2FC012F14BF002000F02E
:1007D0000100207009F10109B9F1040F04F10104CD
:1007E000CCD106E7900E00202C0700200C11002031
:1007F0002807002095F80080B8F1040F0CBF0023F3
:1008000003F001034BB1724507D21C2303FB049391
:100810004FF0030883F804C096E71C2303FB0493FE
:1008200083F804C0B8F1000F8ED1E2E695F800809D
:10083000B8F1010F2BD0B8F1040F7FF4DAAEDFF876
:1008400048811C2303FB04831B79012B29D140F22F
:10085000B7635E430C2303FB04664C486A7842701E
:100860003E44002196F84B32C17002210170837022
:1008700000F08CFC20B196F84B12687801F0C4FAB5
:100880001C2303FB0488002388F80430B1E601F040
:10089000FDF83D4A1C236343D118D05081F80480F1
:1008A000A7E6022BECD140F2B76373430C2202FBA4
:1008B00004333B44687893F84C1201F011FBDFE7F6
:1008C00095F800806878B8F1010F1AD0B8F1040FDC
:1008D0007FF48FAE2C4D1C2303FB04535B7953B97B
:1008E00040F2B76373430C2202FB04333B4493F89A
:1008F0004B1201F0F5FA1C2303FB045500232B7166
:1009000077E640F2B76373430C2202FB04331E4EBA
:100910001C253B446543741993F84B1201F074FA9B
:10092000637983F0010363712BB101F0AFF884F8B0
:10093000048070515DE6022323715AE6124B1C229B
:1009400002FB04382B78012B09D0042B7FF451AE25
:100950006978404605B0BDE8F04FFFF7F9BC69780B
:100960004046FFF7F5FC40F2B7635E430C2303FB00
:1009700004663744697897F84B22404605B0BDE8D5
:10098000F04FFFF719BD00BF2C07002024070020FF
:100990002DE9F74F494C009000274FF00C0940F229
:1009A000B76A474B1D6895F87E600AFB06FB09FB9A
:1009B00007B305EB030898F84A12042930D005293B
:1009C0003ED0032914D12279012A11D198F84F324F
:1009D000B3B1009BA3B10AFB06F609FB07662E44E0
:1009E00096F84C1296F8490201F00EFA0223237190
:1009F0000137392F04F11C04D3D103B0BDE8F08FC7
:100A0000D4F8008001F042F80AFB06F309FB073333
:100A10002B44A0EB0800B3F84D328342DBD9E7E763
:100A20002279012AE4D1256801F030F8B8F84C3277
:100A3000401B8342DCD80223237100236371D7E774
:100A400094F90610A6790029D2DB2168019106F5F8
:100A50008E7601F01BF80BEB860201991544401AC3
:100A600095F8861095F88520490141EAD20102F0F7
:100A70000702022A0DD002F00502012AB8D18142F4
:100A8000B6D895F8872098F849122046FFF794FCCD
:100A9000AEE7A288002AF2D0013A92B2A280002AE0
:100AA000A6D195F8841098F8490201F019FA95F842
:100AB00084102046FFF765FC9AE700BF2C07002052
:100AC000900E0020044A00231370044A1370044A55
:100AD00013805360704700BFFD0D0020FC0D002007
:100AE000680D0020402910B5034614D10B4A117837
:100AF00001F0FF0079B90A49097859B91846094B3C
:100B000000F1400150F8044B43F8044B8842F9D1FE
:100B10000120107010BD0020FCE700BFFD0D00207B
:100B2000FC0D0020BC0D00202DE9F04FDFF890A255
:100B30009AF80030A1B0002B3ED0A24C23780F2BA6
:100B400018D983F080020D2A01D9FF232CE0813BC4
:100B50000C2B00F2C680DFE813F01301470161019E
:100B60007C0197019A02A702C302D402EB0202039E
:100B700010022702013B0E2B10D8DFE813F03000E3
:100B8000330036003E0042005B0063006A007100E3
:100B900079007D009700CB00E100EA008A4B082233
:100BA0005A7001229A702378874A137000238AF8BA
:100BB0000030864B01221A70844C237863B10220E6
:100BC00002F000FD40B1804A40230021022002F0E3
:100BD00015FD08B10023237021B0BDE8F08F00F0AF
:100BE0007DFEE0E700F07EFEDDE7FFF73DFC00F074
:100BF0009FFB054601F0ACF854E0012001F006FB34
:100C0000D1E76278382AA0D8714B72480A2101FBDB
:100C10000233C2F1390200211D88058001319D791E
:100C20008570152903F10A0300F10300BBD091423E
:100C3000F2D1B8E7684B1B68D3F80620624BC3F8C3
:100C40000120B0E765490422062002F0BBF9054601
:100C500028E0614B1B6893F87E205B4B5A70A2E73B
:100C60005D4B1B68B3F87C20574BA3F801209AE733
:100C70005A4902227C20E8E76378032B3FF665AFF0
:100C8000554E326892F87E209A4201D1FFF7ECFB74
:100C9000607800F0D5FB3368627893F87E309A4232
:100CA0000546A7D0002D7FF47EAF4EE76278A3788B
:100CB0001343032B3FF649AF474E336893F87E301A
:100CC000934201D1FFF7D0FBA3786078316840F2FE
:100CD000B7625343803350431944803002F072F9B5
:100CE000D9E7617803293FF630AFA378032B3FF6AD
:100CF0002CAFE278382A3FF628AF3920434340F240
:100D0000B76000FB01333449803309681344C2F1F2
:100D1000390280E0D4F8013040F2C92293423FF614
:100D200014AFC3F53272023227482D49C0F80120B2
:100D30003B2A28BF3B221944053004F061FF32E70B
:100D400020220021234804F02FFF224800F0D4FD88
:100D500029E71F4A03A8002193885588AB4228BF82
:100D60005B1B01F101012CBF9BB20023392920F844
:100D7000023B02F10A02EFD1722203A90A2064E7C2
:100D8000617803293FF6E1AEA07803283FF6DDAE97
:100D9000E378382B3FF6D9AE22793B2A3FF6D5AE21
:100DA000C3F13905AA423FF7D0AE40F2B7658033B0
:100DB00005FB01330B49392505FB003045E700BF32
:100DC000FD0D0020BC0D00207C0D0020FC0D00203E
:100DD0000C1100207D0D0020900E0020BD0D002084
:100DE000F26A0008C10D00206378032B3FF6ADAE18
:100DF000A17838293FF6A9AE40F2B760434303F526
:100E0000B273C1F1390203EB8103AD490F2A28BF48
:100E10000F2209689200AB4819448EE76378032BD0
:100E20003FF693AEA07838283FF68FAEE2780F2ACF
:100E30003FF68BAEC0F139018A423FF786AE40F2F1
:100E4000B761800001FB030092009F4900F5B2707A
:100E5000FBE66378032B3FF678AE6188B1F52B7F14
:100E6000BFF473AEC1F52B7298483E2A40F2B765C5
:100E700028BF3E2205FB0311427001F51271904B11
:100E80001B680230194458E7617803293FF65DAECC
:100E9000638822799818B0F52B7F3BDC013A3A2A17
:100EA00038D80C20B3FBF0F200FB1232884D5ABB4D
:100EB00001222A7069706B606B788B422AD1DFF84F
:100EC00000B200262779B7427FF66DAE6868814987
:100ED0004FF00C09B0FBF9F309FB1300A9EB000379
:100EE000BF1BBB42984601937B4B28BFB8461844B2
:100EF0004246314404F084FE019BBB420FD96B682B
:100F000043446B604644DDE72A78012A02D16A68CF
:100F10009342D1D06E4B00221A805A6015E62B788E
:100F2000012BF7D16F78032FF4D86B68B3FBF9F37B
:100F30005FFA83F9B9F1380FECD8DBF8003093F899
:100F40007E30BB4201D1FFF78FFA40F2B7607843A1
:100F50000C2200F5127002FB09005F4902F032F822
:100F6000DBF8003093F87E30BB42814601D100F0BF
:100F7000EFFEB9F1000FC2D1CCE76378032B3FF647
:100F8000E4AD6188B1F5007FBFF4DFADC1F500725B
:100F90004E483E2A40F2B76528BF3E2205FB0311AA
:100FA000427001F2F4416AE7617803293FF6CDAD62
:100FB000638822799818B0F5007FABDC013A3A2AB1
:100FC000A8D813F0030F424D28D102222A7069706D
:100FD0006B606B788B429DD1DFF8FC90DFF8E0B05E
:100FE00000262779B7427FF6DEAD6868394900F000
:100FF0000300C0F10403BF1BBB42984628BFB8469C
:10100000424631444844019304F0FAFD019BBB423F
:101010000DD96B6843446B604644E2E72A78022AA4
:101020007FF478AF6A6893427FF474AFD1E72B788E
:10103000022B7FF46FAF6F78032F3FF66BAF6B68B7
:1010400098089B053FF566AFDBF8003093F87E30DB
:10105000BB4203D10190FFF707FA019840F2B76352
:101060007B4303F2F443C0B203EB80000422494601
:1010700001F0A8FFDBF8003093F87E30BB4203D1CB
:10108000019000F065FE01980028C2D142E7627825
:10109000032A3FF65AAD0A4B1B6840F2B76101FBC9
:1010A000023393F83627D8E5607803283FF64DAD34
:1010B00040F2B76358430949012200F23670C4E593
:1010C000900E00207D0D0020C00D00207C0D002022
:1010D000680D0020C10D0020700D0020BE0D002005
:1010E000617803293FF631ADA278382A3FF62DAD5D
:1010F00040F2B76303FB01211F4B01F2F4611B684F
:1011000005E6607803283FF620ADA378382B3FF63C
:101110001CADE2783C2A3FF618ADC3F139018A4292
:101120003FF713AD154903F2F46340F2B76543E6A8
:10113000617803293FF609AD0F4B114A1B6840F255
:10114000B76000FB0133D3F82D17C2F80110D3F8B4
:10115000311793F83537C2F80510537223E56078DC
:1011600003283FF6F2AC40F2B76358430549092221
:1011700000F22D7069E500BF900E0020C00D002028
:101180007C0D0020BE0D00207047000030B5124CD1
:1011900001462078F0B9114D2A68102A19D0104B59
:1011A00009681B6820701344013203F00F032A60A2
:1011B0000C4A42F8231002EB83050B4B1B6893F893
:1011C0007E2040F2B76101FB0233012093F83637ED
:1011D000EB7030BD0020FCE78C0E0020840E002058
:1011E000880E0020420E0020900E00202DE9F047CE
:1011F000324C2378002B38D1314F3868A8B3012204
:101200002270304ADFF8C0C01268DCF8001092F893
:101210007E50DFF8B8E0DFF8B89040F2B76606FB22
:1012200005221E4692F8368701EB030A0AF00F0AE0
:101230000EEB8A05EA78424528BF4246EA70B2B111
:10124000013AEA7001339842EED100253144801B07
:1012500001F00F01386025701E4F1D4CCCF80010B6
:10126000A8464FF00209AE4207D1BDE8F0875EF80C
:101270002A2049F826200136E4E72378022B08D0FB
:10128000032B0DD0012B08D1A178607800F0BCFDB4
:1012900003E0A178607800F023FE01350434E2E732
:1012A0006278A3780B4887F8038087F800907A70FB
:1012B000BB70FFF76BFF0028EFD0E5E78C0E002036
:1012C000840E0020900E0020880E0020420E002088
:1012D000020E0020FE0D00201349E422F8B502FBA7
:1012E00000110446114804F08BFC104A00231746F5
:1012F0001846FF2503F58E7107EB810101330026A7
:10130000802B82F874044E71887102F1040282F815
:101310007354EFD140F2B76202FB04F00349BDE819
:10132000F840803001F04EBEBC6D00080000002087
:1013300030B59FB07222002101A804F035FC254B86
:10134000009304226946002001F03CFE40F20513A0
:101350000446022269460420ADF8003001F032FE56
:101360001D4904400422062001F02CFEE4B2044092
:10137000722201A90A2001F025FE184900EA04059D
:1013800002227C2001F01EFE002405400122694655
:101390007E208DF8004001F015FE012205406946CF
:1013A0007F208DF8002001F00DFE0540E0B2FFF730
:1013B00093FF0134042C05EA0005F7D1084B009394
:1013C0002246694641F65C3001F0FCFD2840C0B27F
:1013D0001FB030BD01373546B7060020BB060020E0
:1013E000484D4B0A114A08B58021002302F823100A
:1013F0000133392BFAD10E4B0E4A196813600E4A8D
:1014000091420BD103F58052D2F85C1B0B4A9142FA
:1014100004D19A8840F205139A4206D001F07AF975
:1014200018B9BDE80840FFF783BF08BDE4000020FD
:1014300098140020900E002001373546484D4B0A85
:10144000032801D8FFF748BF002070477F288CBFD2
:1014500000200120C00270472DE9F84F6B486C4F07
:101460006C4DDFF8B481012104F065FE6B48012169
:1014700004F061FE01214FF4401004F05CFE684866
:10148000012104F058FE6748012104F054FE0121B7
:10149000654804F050FE062004F0D8FC634804F0D0
:1014A0009FFC634804F0B5FC614A60480023537018
:1014B00093700124082311461470D37004F0B0FC1B
:1014C00017F8016B5948E2B20123314604F0DDFC04
:1014D000504805F0F8F80323AB7138F816302B604C
:1014E000544B4C4953F82600013405F0AFF8092C51
:1014F000E6D10024DFF84091DFF84081A34640F2B6
:10150000011A444805F0DFF858F8046B39F8027BFB
:1015100040492F60304685F805B0A5F806A0013493
:1015200005F094F801223946304605F0D3F8032C33
:10153000E7D1012207213D4804F04EFD404804F068
:1015400083FF404804F0D4FF3E4A3F4B53603F4B7B
:1015500013603F4B4FF40020C2E90203114640F2F2
:1015600001233748138204F0CAFF3A48012104F0EE
:10157000FAFF3948052104F0FDFF0122304802211D
:1015800004F088FF2948012104F068FC0022334858
:1015900041F2DF0105F0F1F83048002105F0F4F8E0
:1015A000012211462D4805F0F4F8002211461220C0
:1015B00005F096F8002211460B2005F091F8002264
:1015C0001146362005F08CF81848012104F01CFC67
:1015D000164804F048FC154804F04AFC0128FAD0EB
:1015E000124804F049FC114804F04BFC0128FAD0E1
:1015F0001348012104F056FF0C48012104F0F5FCCA
:10160000174A1378002BFCD0BDE8F88F080044007F
:10161000E07100081C0F0020E8710008160030007F
:1016200001003000020030000400400000200140B2
:10163000380F002008720008CC710008D47100082F
:1016400008600240240F0020080F00204C200140B9
:1016500000010101006002400461024000100040EE
:10166000180F002070470000024B33F8100080B2C2
:10167000704700BF960E0020F8B5022004F028FF46
:1016800001283BD11E4D1F4E1F4F022004F022FFA8
:101690002A781E4B002403EB021333F8021B29B1F6
:1016A00036F81400013980B227F811000134082CF3
:1016B000F3D1174901320B7802F00700002808BF68
:1016C00043F001030B70287002F00102114802215F
:1016D00005F000F82A780F48C2F34002042104F014
:1016E000F9FF2A780B482146C2F3800204F0F2FF8A
:1016F000BDE8F8400848012105F03AB8F8BD00BF40
:10170000940E0020080F0020960E00204C71000857
:10171000180F0020000802400010004010B50B48D0
:10172000012105F042F8012804460DD10146074881
:1017300005F045F80548002105F01AF8214604484F
:10174000BDE8104004F051BC10BD00BF00100040C7
:1017500000200140BFF34F8F0549064BCA6802F4D1
:10176000E0621343CB60BFF34F8F00BFFDE700BFC4
:1017700000ED00E00400FA054A4A4B4B116899421B
:1017800010B51FD100231360484AD2F80014D2F8D4
:1017900004044FF0E022136153619361444B4FF016
:1017A000FF32C3F88020C3F88420C3F88820C3F830
:1017B0008C20404AC3F8082C81F3088881F30988FB
:1017C0008047FEE7032004F0C1FF04F02FFC3A4BF2
:1017D0003A484FF4AB721A60012104F0ACFC384A6D
:1017E0001369012143F003031361084604F0B8FCB8
:1017F00004F091FC0028FBD001224821104602236E
:1018000004F0D6FD052004F0F3FD0121022004F0D0
:10181000A7FC192004F070FC01280446F9D100202F
:1018200004F0C4FC002004F0DDFC042004F0D2FC31
:10183000204604F0DFFC022004F0EAFD04F0FCFD89
:101840000228FBD1002004F0D5FC04F071FA1D48F9
:10185000012104F070FC1C48012104F06CFC012003
:1018600004F0CEFD1A2004F047FC0128FAD1002034
:1018700004F08EFD154A936B43F4001393630C4BF5
:10188000134A002183F84D13D2F8FC3043F08073E3
:10189000C2F8FC300F4B1A6842F001021A6059601E
:1018A00010BD00BFFC970120EFBEADDE00A0FF1F02
:1018B00000E100E000A4FF1F003C02401C004000CB
:1018C00000700040010030001D00300000000440A6
:1018D00000ED00E0001000E072B6FEE708B5FFF78B
:1018E00039FF000008B5024B024A1A60FFF732FFC9
:1018F000FC970120EFBEADDE10B50021441C01F1C4
:101900000052A2F6180213789F2B13784FEA131394
:1019100094BF3033373300F81130137803F00F03DE
:10192000092B137803F00F0394BF3033373304F8D7
:10193000113001310C29E2D1182010BD002003F034
:10194000C5BB012003F0C2BB014804F03BBF00BF90
:1019500000000440014804F03CBF00BF0000044008
:101960000148012104F0E7BB0C00300073B50023EF
:1019700016460C460546019304F03CFB304604F045
:1019800041FBA108284604F043FB14F003020BD0EE
:1019900024F00301294401A804F032F9019802B0AF
:1019A000BDE8704004F02EBB02B070BD70477F28C8
:1019B00010B5044609D804F00DFE4FF0804004F045
:1019C000F9FD042804D104F011FE0024204610BDC6
:1019D000142004F0D5FD04F58030C00204F00EFEA2
:1019E000C31E5C425C4104F001FEEFE7034610B504
:1019F00003EB8204B4F5802F08464FEA820106D833
:101A00000A4603F1006104F0FBF8012010BD00203C
:101A1000FCE7F8B500EB8203B3F5802F04460F46D0
:101A2000154615D804F0D6FD04F100640026AE4238
:101A300003D104F0DBFD01200BE0204657F826100F
:101A400004F0F2FD032804F1040403D004F0CEFDF9
:101A50000020F8BD0136EAE70A4B4FF47A721B68A2
:101A6000B3FBF2F3013BB3F1807F0AD24FF0E022E7
:101A7000F0215361044B83F8231000239361072363
:101A8000136170470407002000ED00E0014B186867
:101A9000704700BF3C0F0020024A136801331360F7
:101AA000704700BF3C0F00202DE9F74F214B224F1C
:101AB000224ADFF88C801E8815883B88B8F800B071
:101AC000DFF88090DFF880A00446032C02D903B031
:101AD000BDE8F08F022C0BD0032C15D0012C26D1A1
:101AE0005D4524D0154AA8F800500223214605E0A0
:101AF0009E421CD00F4A3E8023462146012003B05F
:101B0000BDE8F04F01F07ABD0E490F480193052260
:101B100004F021F8019B50B1D9F80030CAF8003028
:101B200099F804308AF80430064A0523DEE70134C8
:101B3000E4B2CAE76C0F0020460F00206E0F0020B1
:101B4000480F0020660F0020400F00207047000063
:101B500038B5214B33F810403CB185280BD882288A
:101B600035D87A2802D801280DD838BD1B4A1378F9
:101B700023431370F9E79A282CD96530C0B20428A2
:101B8000F3D8174AF3E7174D17492B7800229342F1
:101B900017D8062B05D115490522481E03F0EBFF87
:101BA00005235A1C2A700D4A13449C700B4A02EB01
:101BB000D4020123117A04F00704A3400B431372EB
:101BC000D3E711F8010FA042F0D00132DFE7084B54
:101BD0001C80CAE7074BFBE748720008700F002023
:101BE000660F00208C0F0020710F0020730F002063
:101BF0006E0F00206C0F0020234B70B533F810409F
:101C00003CB185280CD8822835D87A2802D80128FA
:101C10000ED870BD1D4A137823EA04031370F8E749
:101C20009A282FD96530C0B20428F2D8184AF2E7B2
:101C3000184E194A357800239D420DD912F8010F2C
:101C4000A04203F1010114D11448013D0144EA1AF4
:101C5000184403F090FF35700C4B03EBD4030122C2
:101C600004F0070402FA04F41A7A22EA04021A724F
:101C7000CFE70B46E0E70A4B1A88A242C9D10022FF
:101C80001A80C6E7074BF7E748720008700F00207C
:101C9000660F00208C0F0020710F0020720F0020B3
:101CA0006E0F00206C0F002008B501F007FF08B18F
:101CB00001F00CFF002001F085FC0146F8B1154948
:101CC00015481C2203F047FF78B1124B124A03F16A
:101CD0001C0153F8040B42F8040B8B42F9D100218C
:101CE0000C4A1C23084601F089FC012001F06AFC23
:101CF000014648B1BDE808400120FFF7D5BE4FF0CE
:101D0000FF3002F095F9D5E74FF0FF3002F090F97F
:101D1000EBE700BF700F00204A0F00200020704743
:101D200010B402280C46BDF8041006D12CB9022AC2
:101D300003D110BC1846FEF7D5BE10BC7047012871
:101D400004D108780130C0B2FFF7AEBE7047000082
:101D50002DE9F041FEF786FBE4221A48194E0021D6
:101D600003F022FF184B186800220C2440F2B765DC
:101D7000392790F87E306B4304FB02330344013271
:101D800093F84AE2BEF1000F17D093F848120329E6
:101D900013D893F84982B8F1380F0ED807FB0161C8
:101DA0005FFA82FCBEF1010F01F808C005D193F87B
:101DB0004B32382B98BF01F803C0392AD9D1BDE87E
:101DC000F08100BFD10F0020900E0020FFF7C0BFB0
:101DD00007B503288DF8070013D8FEF745FB01224D
:101DE0000DF107017E2001F0EDF840B19DF80730BC
:101DF0002BB101220DF107017F2001F0E3F8FFF77D
:101E0000A7FF03B05DF804FB08B50346084619B107
:101E10009F2902D8012912D108BD01F14002D2B296
:101E2000142AF9D8A0F1C8020C2A0ED8DFE802F073
:101E300016161616161616161C2837414900FFF7F7
:101E400087FE224B01221A70E6E7214A00F00700C4
:101E50001188012383400B431380DDE700F0070066
:101E6000BDE80840FFF7B4BF58091A4903F01F0343
:101E700001229A4051F82030534041F82030CBE7FE
:101E8000134B154A1B8843B1B3FA83F31178C3F19E
:101E90001F03DBB2994208BF00231370BCE70F4B4E
:101EA0001B6893F87E2012B993F87F00D8E70020D2
:101EB000D6E70A4B1B6893F87E00013000F0030060
:101EC000CEE7BDE80840FFF70DBD00BF00110020C0
:101ED00002110020F810002001110020900E0020B7
:101EE00008B5084619B19F2902D801290FD108BDAC
:101EF00001F14003DBB2072BF9D8084900F00700D5
:101F00000B880122824023EA02030B80EFE7FFF7F0
:101F100073FE034B01221A70E9E700BF0211002093
:101F2000001100202DE9F04F904B1B8887B0002B4B
:101F300050D0B3FA83F3C3F11F03DBB20293029BC9
:101F400002998B4F8B4EDFF83082B3FA83F35B0933
:101F500001938A4B03938A4B392202FB01330024FD
:101F600005932546874BD8F800204FEA541904F012
:101F70001F0A53F82930049392F87C30DB0701D50F
:101F8000019B53BB804B019A53F8293023FA0AF383
:101F9000134242D0039B01340A33392C039307F1D7
:101FA000010706F10106DDD1784C002D00F0D78045
:101FB0002846FEF7EDFCFFF769FD2060744C23789E
:101FC0001BB1FFF771FE0023237007B0BDE8F04F8F
:101FD000FFF70CB96F4B1B78B0E792F87E1040F218
:101FE000B76B0BFB0120204490F8F40660B1E0B21F
:101FF00001F07AF9D8F8002092F87E100BFB01234B
:1020000093F835379807C5D440F2B76303FB012234
:1020100092F83537DB07B5D4BCE7049B23FA0AFBFB
:10202000039B1BF0010B597A70D100296ED04F4BE6
:10203000029A1988D8F80030E0B24FF0390C40F21B
:10204000B76EB2F1FF3F42D1524A117893F87E2029
:1020500040F2B76C0CFB02F24FF0390C0CFB012282
:102060001344234493F880B0059B1A5D002A42D0A4
:10207000494B32700121587083F802B0184602F1C2
:10208000FF3B197083F803B0FEF72CFAD8F8002054
:1020900092F87E3040F2B7614B430C2101FB0B33C9
:1020A0001A4492F84A32032B18BF45F0010535480F
:1020B000039950F82920497A22FA0AF303F0010320
:1020C0004B4003FA0AF3534040F8293062E741FAE3
:1020D00002FB1BF0010F0CD093F87EB00EFB0BFB44
:1020E0000CFB02BB9B44A3449BF880B0BBF1010FE7
:1020F000BAD1013AA5E787F800B05946FFF784FE48
:10210000BBF1000F18BF45F00105D0E781F00103D6
:1021100013EA0B0216D033783978E0B273B100229B
:1021200032701D4A4FF0040C013B507082F800C021
:102130009170D3701046FEF7D5F9B8E73B70FFF702
:10214000CFFEB4E70029B2D03378002BAFD01248CD
:1021500039780270013B44708170C370EBE72668E8
:10216000FFF794FC86427FF423AF27E7021100209B
:10217000B5100020980F0020900E00200C110020B8
:10218000D10F0020F0100020F8100020900F002048
:102190000011002001110020940F002007B5FFF767
:1021A000EBFAFFF759FCFFF7DBFBFFF7FFFB00F053
:1021B00075FEFFF717F9FFF74FF900F0A1F8FFF7E9
:1021C000C5FCFEF7E1FFFEF74DF901F08CF8FFF7D3
:1021D000FDFDFEF777FC0C4B01A91B88ADF8043020
:1021E000012001F08BFC00214FF0FF3001F020FFB7
:1021F000FEF79AFCFFF736FA00F086F8FFF792FE3A
:1022000001F0D2F8EFE700BFF06A00082DE9F043D3
:102210009FB048B17222002101A803F0C5FC7222D0
:1022200001A90A2000F0CEFE334E344C376800225C
:10223000FD88B7F808E0234640F6FF7C1146101DE4
:1022400007EB40001D805D80B0F802809971F04579
:102250002CBF05EB080005EB0E00604502F1010202
:10226000A8BF6046392A9880D9711972597203F152
:102270000A03E4D1FFF70AFC40F6FF770546FFF7B3
:1022800005FC401BB0F5FA7F02D31FB0BDE8F08318
:10229000FFF7E8F9A0464FF000095FFA89F0FFF771
:1022A000E3F9B8F80030B8F80220C3EB0313034495
:1022B0001909081D9042C3F30F13B8BF0A463168CD
:1022C000B8BFA8F80230A8F8003009F1040301EB08
:1022D00043030989588888422CBF13185318BB42FE
:1022E00009F10109A8BF3B46B9F1390FA8F804303C
:1022F00008F10A08D1D1C2E7900E00200C1100208D
:102300000020FFF783BF00002DE9F0474F4C504EEF
:10231000DFF84081504F0025E8B2FFF7A5F9238888
:10232000A2883168C3EB0313184402F10409C0F317
:102330000F1EB9EB101FB8BF724691F87EC0B8BF30
:10234000A4F804E0030996456088A4F800E0F1468B
:1023500028BF9146484533D2964533D21B1AC3EB6A
:102360008323121AB3FBF2F318F80330A37140F27F
:10237000B76905F1380E09FB0CF96A0909EB8E09FA
:1023800057F82220894405F01F0A99F8850022FA9F
:102390000AF202F00102002808BF42F001029AB1DD
:1023A0000022227299F884209A428CBF00230123D4
:1023B00063720135392D04F10A04ADD1BDE8F0870F
:1023C0000023D3E7FF23D1E799F887A0BAF1000FE4
:1023D00001D199F8842040F2B76909FB0CFC0CEBA1
:1023E0008E0C614494F808E091F886C0BCF1000FAF
:1023F00008BF8446BEF1010F0CD0BEF1020F1CD005
:10240000BEF1000FD5D191F884209A42D1D2E37168
:10241000012303E09A4203D3E37100232372C7E749
:10242000E2799C44944504DAE37102232372002389
:10243000BEE79A42BDD2E371BBE79A42ECD2E279A1
:1024400010449842E3DB9A42B3D9F4E70C11002020
:10245000900E0020487400080411002030B5084A8E
:10246000440900F01F0052F8245025FA00F303F04D
:10247000010359408140694042F8241030BD00BF3B
:102480000411002070B505460C4600680968164620
:1024900003F0B6FB2B6833442B602368334423607E
:1024A00070BD07B5CDE900108B88B3F5827F08D1E8
:1024B00001A880226946FFF7E5FF012003B05DF81F
:1024C00004FB0020FAE707B5CDE900108A8840F246
:1024D00003139A4217D17C22694601A8FFF7D2FF65
:1024E000009B019A33F8021B41F0040122F8021B01
:1024F00001A8CDE9003269460222FFF7C3FF01209F
:1025000003B05DF804FB0020FAE707B5CDE9001041
:102510008B88B3F5817F17D17C22694601A8FFF72C
:10252000B1FF009B019A33F8021B41F0020122F82F
:10253000021B01A8CDE9003269460222FFF7A2FF83
:10254000012003B05DF804FB0020FAE707B5CDE9F0
:10255000002101A840F2B7426946FFF793FF01202E
:1025600003B05DF804FB07B5CDE900108B88B3F527
:10257000807F12D10A22694601A8FFF783FF019BE1
:10258000002223F8022B01A8022269460193FFF7DB
:1025900079FF012003B05DF804FB0020FAE713B5D2
:1025A0000C46CDE9002101A84FF4E4726946FFF71B
:1025B00069FF621EE33412F8013FA3F170010129A3
:1025C00040D806331370A242F5D1019C4FF42B7210
:1025D000694601A8FFF756FF234604F52B72002138
:1025E0009878032808BFD9710C339A42F8D1019B1F
:1025F00039220021184603F0D7FA042280F8392046
:10260000142280F83A20552280F83B205F2280F87F
:102610003C20A52280F83D20AA2280F83E20FF22FF
:1026200080F83F2080F840200346092280F84120AE
:10263000423301A8012269460193FFF723FF0120DD
:1026400002B010BDA3F172012429BCD80933B9E747
:1026500007B5CDE90012684640F2B74201A9FFF77D
:1026600011FF012003B05DF804FB07B5CDE90012AE
:10267000684640F2B74201A9FFF704FF012003B00A
:102680005DF804FB13B5CDE9002101A84FF4E47215
:102690006946FFF7F7FE39240C22694601A8013C80
:1026A000FFF7F0FE14F0FF04F6D18022FF21019B1A
:1026B000013A1C809C70D97003F104030193F6D198
:1026C00001A843226946FFF7DDFE012002B010BDDC
:1026D00007B5CDE900108A8840F201139A4217D15C
:1026E0000A22694601A8FFF7CDFE019B7222002154
:1026F000184603F059FA0422034672330DEB020028
:1027000069460193FFF7BEFE012003B05DF804FBAC
:102710000020FAE73E4B2DE9F04F19683D4B0A685F
:10272000ADF55B5D9A4285B005D000200DF55B5D8F
:1027300005B0BDE8F08F04AD8B8801934FF4DB52F8
:10274000284603F05DFADFF8D090012600244FF010
:10275000120A0AFB06F3019939F803B009EB0302E8
:102760001FFA8BF38B423AD9634203F4DB53EB1825
:1027700084F0010400936742D2F80A3007F4DB5773
:102780002F44002B3DD10AFB0693D3F80E3023B320
:10279000721E0AFB02F24FF000080292029A0393A3
:1027A0004A44D2F80610D2F8022008FB01220AFBA4
:1027B0000691D1F80600D1F8021008FB001100982C
:1027C000394402445FFA88F098470028ADD008F1F8
:1027D0000108B8F1040F039BE0D1A7F804B001365B
:1027E000062EB6D1644204F4DB54291901F5805356
:1027F0000A4AC3F85C2B00204FF4DB5200F0E2FBE6
:1028000094E70099384698470028BCD18DE700BF6F
:10281000900E00200137354648780008484D4B0A95
:1028200000487047BA7A000802289ABF024B53F852
:1028300020000020704700BFB4780008974B9848EC
:102840001B6893F87C10CB0747BF822304225B23CD
:10285000032211F0040F4FF0A0012DE9F04FC171D8
:102860004FF045074FF0FA014FF009044FF0020610
:102870004FF0070C4FF004084FF0210E4FF0220AE2
:10288000837002714FF000034FF0010201724FF0AC
:10289000110B4FF0030147764FF0050704704271AA
:1028A00044724273C2730274847480F814B0427527
:1028B000C27580F818A04670C370837180F80A80D2
:1028C000C37203738173437480F813E08375837656
:1028D00080F81BC04FF08109077780F82DB06FF0AA
:1028E000780B0CBF0825012580F81D9080F832B0C8
:1028F0004FF040096FF07D0B80F8224080F82420D3
:1029000080F8262080F82B4080F82E2080F8302098
:1029100080F831A080F836B080F83B40817780F8AD
:102920001F9080F8203080F8215080F8238080F8B4
:10293000253080F8271080F8283080F8293080F87A
:102940002A3080F82CE080F82F3080F8333080F87F
:1029500034C080F8357080F8371080F8389080F8EF
:10296000393080F83A5080F83C804FF0110B80F8F5
:102970003D6080F8444080F84AA080F84BA080F881
:102980005B404FF0830AFF2480F8472080F84920FD
:1029900080F84F2080F83E3080F83F6080F840108B
:1029A00080F8413080F8423080F8433080F845E0CC
:1029B00080F846B080F8483080F84C3080F84DC040
:1029C00080F84E7080F8501080F8519080F85230A6
:1029D00080F8535080F854C080F8557080F856A0A5
:1029E00080F8571080F8589080F8593080F85A5085
:1029F00080F85C8080F85D1080F85E3080F8604080
:102A00005D2480F8614080F86220102480F86720FF
:102A100080F86820242280F8644080F8664080F8BE
:102A200069201424842280F86A2080F86B4080F8A2
:102A300076201324202280F85F6080F8633080F8CD
:102A400065E080F86C1080F86D3080F86E1080F8CA
:102A50006F4080F8706080F8713080F8721080F8F4
:102A6000733080F874C080F8757080F8771080F843
:102A7000782080F8793080F87A5080F87BC080F830
:102A80007C7080F87D6080F87E1080F87F2080F870
:102A9000803080F88150BDE8F08F00BF900E00209C
:102AA0000A14002000487047C2790008954B9648E8
:102AB0001B6893F87C10CB0747BF822304225B235B
:102AC000032211F0040F4FF0A0012DE9F04FC17166
:102AD0004FF045054FF0FA014FF009044FF005079C
:102AE0004FF004084FF0210E4FF0220A4FF0110B67
:102AF000837002714FF000034FF0010201724576BE
:102B00004FF003014FF007054FF0810C0470427144
:102B100044724273C273027484744275C27580F841
:102B200018A0C370837180F80A80C3720373817325
:102B3000437480F813E080F814B083758376C5760B
:102B4000077780F81DC04FF0870C80F832C04FF037
:102B5000820C0CBF082601264FF0400980F836C0D1
:102B60004FF0020C80F8224080F8242080F82620C4
:102B700080F82B4080F82E2080F8302080F831A09B
:102B800080F83B40817780F81F9080F8203080F8F3
:102B9000216080F8238080F8253080F8271080F8A5
:102BA000283080F8293080F82A3080F82CE080F82E
:102BB0002DB080F82F3080F8333080F8345080F812
:102BC000357080F8371080F8389080F8393080F808
:102BD0003A6080F83C8080F83DC080F83E3080F854
:102BE000444080F84AA080F84BA080F85B404FF04A
:102BF000830AFF2480F8472080F8492080F84F207E
:102C000080F83FC080F8401080F8413080F84230B2
:102C100080F8433080F845E080F846B080F84830CE
:102C200080F84C3080F84D5080F84E7080F850108D
:102C300080F8519080F8523080F8536080F85450FA
:102C400080F8557080F856A080F8571080F858909A
:102C500080F8593080F85A6080F85C8080F85D1008
:102C600080F85E3080F85FC080F860405D2480F8B6
:102C7000614080F86220102480F8672080F8682086
:102C8000242280F8644080F8664080F8692014248B
:102C9000842280F86A2080F86B4080F87620132424
:102CA000202280F8633080F865E080F86C1080F8AE
:102CB0006D3080F86E1080F86F4080F870C080F83A
:102CC000713080F8721080F8733080F8745080F89A
:102CD000757080F8771080F8782080F8793080F867
:102CE0007A6080F87B5080F87C7080F87DC080F836
:102CF0007E1080F87F2080F8803080F881604570F9
:102D0000BDE8F08F900E00208813002010B588B029
:102D1000A8B1032821D02ED8184B53F820402046C4
:102D2000FDF75EFA202828BF2020154A23462118E7
:102D30008B4209D013F8014B22F8024FF8E7104BF1
:102D400040F209425A800120431C0D4A5B0043F4C3
:102D500040731380104608B010BD6846FEF7CCFDE6
:102D600007496B4600228242EED013F8014B21F84E
:102D7000024F0132F7E70020EDE700BFB07900080D
:102D80004613002000487047727900080B46012B5B
:102D900011460ED1137803F06003402B0BD153780A
:102DA000012B08D19388072B05D1044AB22301F0E7
:102DB00085BC012070470020704700BFC078000824
:102DC00008B54FF400520448FF2102F0EDFE034B1A
:102DD00042F204021A6008BD981400208C140020EE
:102DE000144B13B51C687F2C1DD9134C1349206854
:102DF0004FF40062FEF70DFE78B100224FF400514F
:102E00000E48FEF7B3FD01902068012201A900F5EC
:102E10000050FEF7FEFD4000C0B2094B42F2040232
:102E20001A6002B010BD2046FEF7C1FD0028F8D0A0
:102E30000134D8E794140020901400209814002046
:102E40008C140020044B1B68B3F5903F01D3FFF7AF
:102E5000C7BF0120704700BF8C14002013B5094B79
:102E6000094C1B6801902068012201A91844FEF753
:102E7000D0FD20B1236804332360FFF7E3FF02B0E5
:102E800010BD00BF901400208C14002008B5FFF77F
:102E900097FFFFF7A5FFC0F3400008BDF0B57F2501
:102EA00085B000242846FEF7D1FA0444B4F5903FDB
:102EB00063D3404B1D60404D404EC4F580242C60D0
:102EC000FFF77EFF3D494FF400622046FEF78EFD7E
:102ED000002855D000224FF400513046FEF746FD41
:102EE00004462868012202A900F50050FEF77EFD85
:102EF000002845D0029B9C4242D142F2040428683B
:102F0000012201A92044FEF771FD002846D0019B53
:102F10005A1C30D00293C3F307231F2B04F104077C
:102F20003AD903F0E003E02B36D0BDF808309DF825
:102F30000920C3F30C0303EB5213B3F5005F4FEA10
:102F4000521129DC022925D92868012203A9384415
:102F5000FEF74CFD00B30834BDF808009DF80920C9
:102F6000C0F30C0052090DF10A01304402F048FE92
:102F7000B4F5903FC3D3012010E0013D92D29AE70F
:102F8000FFF71EFFFFF782FF88B905B0BDE8F040EC
:102F9000FEF7A2BC3C46DFE73C460020084B1C6025
:102FA00010B9FFF71DFFEFE7FFF74CFFECE705B0A7
:102FB000F0BD00BF9414002090140020981400204D
:102FC0008C1400202DE9F34114468218B2F5005FFD
:102FD00005460B464FD82A4A1F46002C4DD013F801
:102FE000016B515D8E4205EB020034D0002C44D0C1
:102FF000631EF95CC25C914230D02246394602F031
:10300000FFFD4FF00008CDF80180BDF80030CDF88D
:103010000480062C65F30C032646ADF8003028BF6B
:103020000626C3F3072366F34713324639460DF1EC
:1030300002008DF8013002F0E3FD0098FFF70EFF6B
:10304000012812D1022C0BD8A41B35443744DAD105
:10305000FFF7F8FE09E00135013CBDE71C46C5E776
:103060000198FFF7FBFE0128EED0003818BF0120C1
:1030700002B0BDE8F0810020FAE70120F8E700BFC8
:1030800098140020B0F1804F03462ABF00F140435E
:1030900000204FF40040C20302F18052934224BF4B
:1030A00000F580409B1A820302F18062934224BFA4
:1030B00000F500509B1A420302F18072934224BF34
:1030C00000F580509B1A020302F58002934224BF50
:1030D00000F500609B1AC20202F58012934224BFE1
:1030E00000F580609B1A820202F58022934224BF81
:1030F00000F500709B1A420202F58032934224BF11
:1031000000F580709B1A020202F58042934224BFB0
:1031100080309B1AC20102F58052934224BF403096
:103120009B1A820102F58062934224BF20309B1AD1
:10313000420102F58072934224BF10309B1A0201B3
:103140004032934224BF08309B1AC200103293428F
:1031500024BF04309B1A82000432934224BF023001
:103160009B1A42000132934228BF01307047494305
:103170004BF60162A2EB510292B24B08B2F5A04F9E
:1031800023BFC3F5DC4301339AB2802328BFC02399
:10319000990101F5806189B291429FBF20339BB2B2
:1031A000511A8AB2590101F5807189B291429FBFCB
:1031B00010339BB2511A8AB21901403189B291423F
:1031C0009FBF08339BB2511A8AB2D900103189B21D
:1031D00091429FBF04339BB2511A8AB299000431C5
:1031E00089B291429FBF02339BB2511A8AB25900F1
:1031F000013189B291429CBF01339BB210FB03F0B5
:10320000FF23B0FBF3F0C0B27047000070B51D4B58
:103210001C6894F87E3040F2B762534303F22D737A
:10322000E2189579854234BF012500250D7024D31D
:10323000E35C834223D2937883421AD21379834288
:1032400019D29179814234BF032102214C0002340A
:1032500002EB4103161912F811505B787178125D78
:10326000401BC91A4143521B91FBF2F29818C0B29D
:1032700070BD0021EAE70121E8E7FF20F8E7002020
:10328000F6E700BF900E0020704701207047012034
:103290007047000037B54B79FF2B02D0002003B0F8
:1032A00030BD8B795D2BF9D1CB79012BF6D10B7821
:1032B000CC5CCD18094B0193094B00930A79032389
:1032C000291900F0E7FD38B94FF0E023D3F8F03DBD
:1032D000DB07E3D500BEE1E72720E0E7B5340020B7
:1032E000B434002070477047F0B5294B1B6893F841
:1032F0007E2040F2B76101FB0233034493F8F436B9
:103300002BB10F2B04D9103BDAB2092A31D9F0BD09
:10331000204C214A450900F01F0754F825604FF062
:103320000A0C26FA07F10CFB002211F00101527A77
:1033300011D182B1DFF864C0DFF864E0BCF80200AC
:103340003EF813300343ACF802304A40BA407240B2
:1033500044F82520DBE782F001000842F5D00F4851
:10336000DFF83CC03CF813C0438823EA0C034380D9
:10337000EBE7094A0B490A2404FB002231F8130049
:103380009279824238BF024621F81320BFE700BF7E
:10339000900E0020AC3400200C110020D10600203B
:1033A000F87A0008983400202DE9F04F7A4C7B4DD4
:1033B000207CDFF8EC8187B00DF10F01FFF726FFCD
:1033C0000DF10F012871A07CFFF720FF754B68718C
:1033D0001868002290F87E50CDE9042240F2B763CD
:1033E00003FB050304AF93F83567BC46C6F3C0067C
:1033F00041464B7891F800E0103BAEF1100E34F8E6
:10340000133034F81EE0002E00F0AC80734538BF56
:1034100073460132042A2CF8023B01F10201E8D183
:1034200040F2B76304AE4FF0000A03FB050935888C
:10343000748805FB05F004FB0400FFF723FE01463A
:10344000002837D0A54200F29580C5EB0523B3FBD9
:10345000F4F340F09180C4EB042BBBFBF5FB0BFBBA
:103460000BF003FB03000193FFF70CFEC1EB0121FE
:10347000B1FBF0F00DF10F01C0B2FFF7C7FE9DF8F0
:103480000F20019B002A7AD0002D18BFFF25002CA9
:1034900018BFFF2499F835375B0779D4EDB2E4B251
:1034A00021462846FFF763FE294630802046FFF775
:1034B0005EFE70800AF10103022B06F104064FF054
:1034C000010AB4D1344C354D002298F8010098F827
:1034D000001037F8023B1038103934F8100034F877
:1034E0001110DB01884298BF5B4205EB42010132BB
:1034F0001BB2042ACB8008F10208E6D100F0D6FA0C
:10350000044600F0DBFA2CB320BB274D297809B321
:1035100000F036FD0446E8B924492048142202F0A0
:103520001AFBB8B12978204600F0E2FC1B4A297842
:103530001423204600F0F8FC2978204600F0E6FC31
:10354000164B1A4A03F1140153F8040B42F8040B0A
:103550008B42F9D110481422002107B0BDE8F04F8A
:1035600002F022BB1BB2A3EB0E03002BB8BF5B42E1
:103570009BB24EE7FF236EE74FF0FF0B6FE7FF2490
:10358000434300FB0BFBB3FBF4F5BBFBF4F481E717
:10359000358074808EE700BF98340020D10600206B
:1035A000F07A0008900E0020B5340020BD060020FF
:1035B0000123037000487047CC7A0008704701204F
:1035C0007047704738B50C4B0C2202FB00335C7817
:1035D00000F06CFA054600F071FA55B148B92CB10B
:1035E000214600F0CDFC80F00101CCB204F00100D6
:1035F00038BD0024FAE700BFF836002002282DE984
:10360000F0470546894616461C4638D8DFF87480D0
:103610000C2303FB00830020597800F069FC70B391
:10362000C022194B6A4302F140071F44B9F1000F51
:103630001AD0134483F840906CB90134A4B20C231F
:1036400003FB05883A4698F8011023460020BDE8A0
:10365000F04700F069BC96B13F2C10D822463146A5
:10366000781C02F0CDFAE8E7002CE8D03EB1402CFF
:1036700005D822463146384602F0C2FADFE700207C
:10368000BDE8F087F8360020B834002001207047EC
:1036900002482422002102F087BA00BFF836002039
:1036A0000020FFF7F5BF00002DE9F34113464A79EA
:1036B000032A07460D4623D10A79C2EBC206123609
:1036C000B6B29E4215D8284C94F80180B8F1000F8C
:1036D0000AD0637B2BB1637E5BB918344FF00208CC
:1036E00002E00C344FF001082B78E91848782128C3
:1036F0000BD04FF0E023D3F8F03DDA0700D500BE41
:103700000026304602B0BDE8F081A160E85C631C91
:103710000193A31C009301440323384600F0BAFB35
:103720000028E6D0AB79A178012B04BFEB79E370D8
:103730000123A371AB782370A368B3F80730A3808B
:103740000029DED0094AC02000FB08224023384669
:1037500000F0EAFB0028D4D14FF0E023D3F8F03D8D
:10376000DB07CED500BECCE7F83600203835002088
:103770002DE9F3411546127802F01F06012E074687
:103780000B4675D16C4CA9882078C9B2884221D0EB
:10379000207B884203D0207E884269D1022612F025
:1037A000600228D1012B40F097806B78062B5FD107
:1037B0006B881B0A212B0FD10C2303FB06439A684D
:1037C000002A55D013782946384602B0BDE8F041AA
:1037D00000F074BF0026E2E7222B49D13046FFF704
:1037E00023F80C2303FB064302469B8829463846F0
:1037F00000F064FF70E0202A3AD16A78013A0A2A80
:1038000036D8DFE802F0067D8435353535353E6B38
:103810008B00012B60D1B5F806C06988DFF81CE188
:10382000604640284FF0C0044FEA112206FB04F422
:1038300028BF402011F0FF0104EB0E081CD0BCF1A2
:10384000010F19D901380EF8041008F1010C80B2EB
:103850001C46009063463046FEF760FA23189BB280
:103860006BB94FF0E023D3F8F03DDB0700D500BE85
:10387000002002B0BDE8F081C4460024E9E74246DA
:10388000B4E7012B07D1EB88402BF1D82B4AC0219C
:1038900001FB0622AAE7032B1ED16988ED88274F7A
:1038A000402D4FF0C0044FEA112206FB04F42846D5
:1038B00028BF402011F0FF0104EB070308D0012DC1
:1038C00006D93C5D8C4202BF00F1FF30013380B26B
:1038D00000903046FEF724FA0120CAE7012BFBD105
:1038E00069880C2303FB0643090A3046D971FFF7A8
:1038F00066FE0028BCD02946384600F0CDFEEBE736
:10390000012BE9D10C2202FB064207326EE7012BA4
:10391000E2D10C2202FB0642063267E7012BEAD015
:10392000032BD9D169880C2303FB0643C9B2304667
:103930009971FFF743FECFE7F8360020B834002036
:103940002DE9F3410C461146264A804600261746CB
:103950009078A04210D05078A0420DD00136032EAE
:1039600002F10C02F4D14FF0E023D3F8F03DDB0775
:1039700000D500BE002013E00C2202FB0672C02519
:103980005278A242F0B2184C9BB206FB05F50FD15B
:1039900040352C4439B91A462146FEF7D0F90120AA
:1039A00002B0BDE8F08122460121FFF70AFEF6E7EA
:1039B00080352C4481B9009302222346FEF7B0F9EA
:1039C0000C2303FB06772246B9784023404600F0DB
:1039D000ABFA0028E3D1C6E722460221FFF7F1FD4A
:1039E000EEE700BFF8360020B83400202DE9F041A2
:1039F0001A4F1B4DDFF86C800646002439784B1CAB
:103A0000E2B2DBB2934210D834220021164802F011
:103A1000CBF81022FF21154802F0C6F8BDE8F041AE
:103A200013481022FF2102F0BFB891420DD9D8F8F7
:103A30000030242101FB02334BB94FF0E023D3F8CF
:103A4000F03DDB0708D4BDE8F081F6D12B46DB68FA
:103A5000304698470134D1E700BEF4E7E037002054
:103A6000187B0008E4370020E9370020ED370020FC
:103A7000FD37002070B50C4605461646486900F033
:103A80004FFE6369324628460121BDE87040184761
:103A9000034A034610780BB101F052B901F066B940
:103AA000000700207047704770477047024B5878F6
:103AB000003818BF01207047E9370020024B187802
:103AC000C0F38000704700BFE9370020094B1A7827
:103AD00010B5C2F38004520708D51B7803F0180311
:103AE000182B05D1044B187801F05AF9204610BD67
:103AF0000024FBE7E9370020000700202DE9F0470C
:103B0000DFF8A48098F80030FF2B05460E4646D11A
:103B100049B94FF0E023D3F8F03DDB0700D500BEF4
:103B20000020BDE8F087342200212048204FDFF834
:103B3000849002F039F8204B204800241C7002F0D9
:103B400005F81F4B1F4A1A603846FFF731FD3B78D6
:103B5000C9F80000FF2BDCD01B4A4FF0240A0DE00F
:103B600088421ED9D9F800300AFB0133002BD0D08F
:103B70005B680134002BCCD09847134A3878431C3B
:103B8000E1B2DBB28B42EBD83146284688F80050D0
:103B900001F04EF90028BCD0284601F0D1F80120F0
:103BA000BFE7B6D11346E3E700070020E93700205E
:103BB000E0370020E4370020E8370020EC06002042
:103BC0001C370020E8060020187B00082DE9F04390
:103BD0004378023B85B004460E46052B16D8DFE835
:103BE00013F00600B2002A003200C900CE00844B58
:103BF0001A7822F001021A701A78002122F00202CB
:103C00001A7059701A7861F382021A707D4B1F681E
:103C100016B93B68304698472146381D01F06DFFC4
:103C2000054616B93B6801209847002D78D0617889
:103C3000207832469BE0724B1A78D70777D51A78EE
:103C400042F00402E1E76E4A1378DD076FD513787E
:103C500023F004031370D9E791426BD9D9F80030EF
:103C6000242101FB0233002B66D1013798F80010A4
:103C70004B1CFAB2DBB29342EED8614D2B78580759
:103C80002CD52B7823F004032B700023CDF80630BD
:103C9000CDF80A30ADF80E3023788DF804300523C6
:103CA0008DF80530574BD3F800801EB9D8F8003096
:103CB0003046984701A908F1040001F01EFF0746AD
:103CC0001EB9D8F8003001209847002F42D14FF09C
:103CD000E023D3F8F03DD90700D500BEEB78DA0732
:103CE00025D50023CDF80630CDF80A30ADF80E30DA
:103CF00023788DF8043003238DF805306368029330
:103D0000404B1D6816B92B683046984701A9281DFD
:103D100001F0F3FE044616B92B68012098470CBB4E
:103D20004FF0E023D3F8F03DDB0700D500BE05B02F
:103D3000BDE8F08399D12B461B6A002B95D06168B2
:103D40002078984791E7DFF8C080304DDFF8C090C9
:103D500000278BE79DF805109DF804003246FFF719
:103D6000A1FEBBE79DF805109DF804003246FFF761
:103D700099FEDCE7274A13780133DBB26AE7017961
:103D800011F00F033FF442AF1D4D4FEA430C05EB1A
:103D9000430303EBD113C8091A7D1B4B1B789A42CE
:103DA00029D21B4B1B68242707FB0233002B3FF44F
:103DB0002DAFDF69002F3FF429AF654405446279D8
:103DC00095F8243023F0010385F8243095F8243049
:103DD00023F0040385F824302078A3682035B84701
:103DE0000028A4D12B7943F001032B712B7943F0E8
:103DF00004032B710AE77FF409AF044BD9E700BF36
:103E0000E93700201C370020E0370020187B00082D
:103E1000E4370020E837002010B5054C18B9636876
:103E20000BB92368984763680133636010BD00BF16
:103E3000F8060020054A536833B1013B536018B9B6
:103E400013B9136801201847704700BFF806002017
:103E500038B58A7812F008020C4608D04FF0E023FB
:103E6000D3F8F03DDB0700D500BE002038BD074B7E
:103E70001D78074B2046997801F00CFC0028EDD006
:103E800021462846BDE8384001F040B80007002030
:103E9000E93700202DE9F047DDE9086781460C4647
:103EA00090469A460025A84501DC01200AE0637887
:103EB000052B09D04FF0E023D3F8F03DDB0700D508
:103EC00000BE0020BDE8F087E37803F0030353450C
:103ED000F0D121464846FFF7BBFF0028EAD0A3787F
:103EE000DA0914BF3B703370237801351C44DAE7DC
:103EF000CB0901F00F020448243303EB42030021F5
:103F0000184401F09ABB00BFE9370020CB0901F04B
:103F10000F020448243303EB42030021184401F04C
:103F2000A7BB00BFE937002038B5134C01F00F05DF
:103F300004EB450404EBD11420342079C00708D5E4
:103F40004FF0E023D3F8F03DDB0700D500BE0020A2
:103F500038BD207940F0010020710848007801F058
:103F60003FF80028F4D1227960F30002227122790F
:103F700060F382022271E3E7E937002000070020A6
:103F8000054B01F00F0203EB420303EBD11191F853
:103F9000240000F001007047E937002010B50C4BF9
:103FA00018780C4601F062F80A4904F00F0301EB9F
:103FB000430101EBD41191F8243043F0020381F85E
:103FC000243091F8243043F0010381F8243010BDEF
:103FD00000070020E937002010B50C4B18780C467C
:103FE00001F056F80A4904F00F0301EB430101EB1D
:103FF000D41191F8243023F0020381F8243091F891
:10400000243023F0010381F8243010BD0007002084
:10401000E9370020054B01F00F0203EB420303EBED
:10402000D11191F82400C0F340007047E937002017
:104030002DE9F04F984B1B78FF2B87B03DD0974F61
:10404000974B1D682C46002054F8043B98472046A7
:1040500003A901F02AFD2B6804460120984764B3A8
:104060009DF80D30013B072B00F2D082DFE813F002
:1040700008001200C602AE02B8021B007002BF02A6
:104080009DF80C00FFF7B2FC00F042FB9DF81030E9
:10409000BB70D5E79DF80C00FFF7A8FC00F038FBDB
:1040A000FFF703FDCCE77F4A13784BB94FF0E023CD
:1040B000D3F8F03DDC0700D500BE07B0BDE8F08FB7
:1040C0001378013BDBB21370137803F0FF00002B71
:1040D000B6D1724C9DF80C50237843F00103237045
:1040E00094F8243060F3000384F8243094F82430EA
:1040F00060F3820384F8243094F8253060F30003E1
:1041000084F8253094F8253060F3820384F8253054
:1041100000F006FB9DF8102002F06003602B07D131
:104120004FF0E023D3F8F03DDD072BD500BE29E0AA
:10413000402B0BD15C4800F0F3FA04AA0121284679
:10414000FEF724FE00287FF47BAF1BE002F01F0285
:10415000012A00F07E81022A00F0AC81002ADFD122
:10416000202B21D19DF814300F2B0BD84F4A23441C
:1041700012781B79934210D24D4A1168242202FB17
:10418000031161B99DF80C00002100F06FFF9DF84C
:104190000C00802100F06AFF52E7F3D1454904AAE0
:1041A0002846FFF767FCCDE7002BB9D19DF8113009
:1041B000092BB5D801A252F823F000BF3144000802
:1041C0001F440008214100080B4400082141000859
:1041D000E54100086143000821410008FF41000853
:1041E0000942000804A800F0A1FA9DF81210284620
:1041F00000F026FF237843F00203237020E7637862
:104200008DF80A3001231DE19DF8126063789E420B
:1042100013D063786BB10021284600F05FFE28467A
:1042200000F08EFE94F802802846FFF7DFFB84F84A
:104230000280667036B9FFF738FC04A9284600F002
:104240002BFAFDE6701EC0B2FEF7F8FA10B1437803
:10425000022B08D04FF0E023D3F8F03DD9077DD4EE
:10426000002363705CE7C379C3F38012C3F3401388
:104270001B0143EA4213227822F0300213432370D9
:104280004388C31800F109060093009BB34213D87A
:10429000FFF70AFCD1E700BF00070020E937002044
:1042A0001C370020E83700208D2D0008E037002063
:1042B000E4370020187B000873780B2B03BF32789B
:1042C000F378B61801237278042AC3D1009AA2EBBE
:1042D000060A1FFA8AFA4FF0000BB64A11784A1CF8
:1042E0005FFA8BF8D2B24245B4D9414515D9B24AEA
:1042F0001268242101FB0822002AABD0D2F81090CA
:104300000193524631462846C8470828019B8146FA
:1043100021D982451FD300210CE09BD1A74AEDE7AC
:10432000B078024454FA82F201311079FF2891D119
:1043300082F80480CAB29342F2D843463146A0487C
:104340004A4601F0EBF99B4B1B780133DBB2434546
:104350004E449AD87EE70BF1010BBEE700BE7FE723
:10436000BDF812301A0AD8B2531E0E2B3FF60AAF10
:1043700001A151F823F000BFB5430008D74300085E
:10438000F143000885410008854100080544000804
:10439000D743000885410008854100088541000891
:1043A00085410008854100088541000885410008D5
:1043B000CD430008FEF734FA024600283FF4B0AEC1
:1043C000122304A9284600F079F9BBE6FEF7DAFCCF
:1043D000024640B9D6E6022A07D1FEF72FFA024676
:1043E00000283FF49DAE5388EBE7FEF75FFBEFE755
:1043F000BDF81410FEF78AFC024600283FF4C2AE56
:104400000378DEE7FEF74EFBF6E7BDF81230012B2E
:104410007FF4B8AE237843F0080323700DE7BDF8AE
:104420001230012B7FF4AEAE237823F00803F4E7BB
:104430002378C3F340129B0803F002031343ADF843
:104440000A3002230DF10A0204A9284600F036F9C9
:10445000F6E59DF814300F2B3FF694AE554A2344F1
:1044600012781B7993421ED2534A1168242202FB10
:10447000031100293FF486AE04AA2846FFF7FAFA92
:1044800000287FF4DDAD9DF8103013F060047FF458
:1044900079AE00F045F99DF811300A2B07D00B2BAF
:1044A0003FF4CBAE6EE67FF46DAE4449E4E78DF8A1
:1044B0000A40A7E69DF814100A073FF531AE01F057
:1044C0000F0204EB42023B4802EBD1120078127D4E
:1044D000824214D238480668242000FB0266ABB939
:1044E0009DF8113003F0FD02012A15D0002B7FF456
:1044F00017AE2846FFF78EFDADF80A00A1E700F0E1
:104500008E80002B7FF43EAE0026E9E7002E3FF4BC
:1045100039AE04AA314643E6BDF8122022B9012B78
:10452000284612D1FFF758FD002E3FF489AD3146E1
:1045300004AA2846FFF79EFA002000F0F1F894F84C
:104540002530DE073FF57CAD77E6FFF727FDEBE78B
:104550009DF8101001F00F0407EB440202EBD1129A
:1045600092F8243023F0010382F8243092F82430AA
:1045700023F0040382F824303CB9059B9DF81120F8
:104580009DF80C0000F0E0F85AE50A4B127D1B780C
:104590009A4217D2084B1B68242000FB0233002BE1
:1045A0003FF484AD9C699DF81120059B9DF80C009B
:1045B000A04745E5E0370020E4370020187B0008DD
:1045C000FD3700207FF472AD174BEBE73B78D8073F
:1045D0007FF536AD3878C0F3C000FDF7B5F92FE5AB
:1045E0003B78D9077FF52CADFDF7B4F928E5049B9E
:1045F000002B3FF425AD0598984721E5FB78DA07B5
:104600007FF51EAD0498FFF74EFA19E54FF0E02351
:10461000D3F8F03DDB077FF513AD00BE10E5024E89
:10462000002B7FF476AF5BE7187B0008144B998969
:10463000DA8970B58C1AA4B2054693F90000402CB3
:1046400028BF402400280FDA914213D09968A1B105
:104650000C48224601F0D4FA80210A4A2346284613
:10466000BDE87040FFF760BC91424FF00001F4D10B
:104670000A46F3E780210022F0E7084670BD00BF3C
:104680006038002020380020C94300231A4601F07A
:104690008001FFF749BC704730B4074C05460B4614
:1046A00008684968224603C20022C4E9022228465B
:1046B000197830BCFFF7E8BF60380020F8B5134E1A
:1046C0000C46054608684968B260374603C70021B2
:1046D000F181E1888B4228BF0B46B38189B14BB190
:1046E00042B94FF0E023D3F8F03DDB0700D500BE20
:1046F000002005E02846FFF799FF0028F1D00120AF
:10470000F8BD21782846FFF7BFFFF6E760380020A4
:1047100002481422002101F047BA00BF603800208F
:10472000014B1861704700BF6038002010B5024689
:10473000044C00685168234603C30023C4E90233D4
:1047400010BD00BF6038002070B5284C1E4623788D
:10475000C909B1EBD31F054613D03EB14FF0E0239A
:10476000D3F8F03DDB073FD4002070BD2146FFF7B2
:1047700092FF23691BB12246032128469847012056
:10478000F3E794F90030002B06DBA0680028EBD09B
:104790001749324601F034FAA268E38932443344BF
:1047A000A260E2889BB29A42E38101D03F2E17D8E3
:1047B000236933B921782846FFF766FF0028DED148
:1047C000CCE70221094A2846984701460028F1D142
:1047D000284600F04BFC8021284600F047FCCEE73D
:1047E0002846FFF723FFE9E700BEBDE76038002059
:1047F00020380020274B70B503EB001501F00F04A3
:104800002E7AA64208D84FF0E023D3F8F03DD9071E
:1048100000D500BE002070BD00F1FF3CDCF10000BF
:1048200040EB0C000001C909185802F103034FEADC
:1048300093030FD1C3F30D0308333344426A5B0083
:104840009BB29A4204D2144A92889A42DBD34362C2
:104850000120E0E76D7A104925B18A799542D2D9D5
:1048600001328A718268456A12065CBF5B009BB2A6
:104870008A881D44AA42C6D3D21A92B28A8042EADA
:1048800003430CB98362E3E704F13F0200EB8200CB
:104890004360DDE73C7B00087C38002000F1FF3CF2
:1048A000DCF1000141EB0C010A4B0901595803EB03
:1048B00000131A7ADB68183252004A628A6C064A80
:1048C0009B0893801A0412FA83F3CB65402280215F
:1048D000FFF790BF3C7B00087C380020F0B5431EFA
:1048E000584258418E78214B214F0001F5091C5840
:1048F0008B88D4F808E806F00F004FEA400C0CEB68
:10490000D61207EB0212C3F30A0353818A791EF011
:10491000060F04BF02F1FF324FF0010EAC4408BF96
:104920000EFA02F207EB0C1708BFD2B23A73CA783C
:1049300002F003014A1E43F4004343EA814318BFD7
:10494000012243EA02730DB166F3995385F0010524
:1049500000EB051202F14801490163500123D4F82C
:104960001C1893400B43C4F81C38F0BD3C7B000876
:104970008438002000F1FF3CDCF1000040EB0C002B
:104980000001324B30B51B5801F00F04C9094FEA42
:1049900044114FEA425203EB01002CD0D0F80059E9
:1049A000002D0EDBD0F800190A4342F00062C0F877
:1049B0000029A40144F020041C611A699506FCD466
:1049C00030BDD0F8005945F00065C0F80059D0F866
:1049D00008596D06FBD5D0F800592A4342F08042B1
:1049E000C0F800291944D1F808299207FBD5022202
:1049F000C1F80829DDE7D0F8005B002D00DA2CB9FA
:104A0000D0F8003B1343C0F8003BD9E7D3F8044883
:104A100044F40074C3F804485C692406FCD5D0F85B
:104A2000004B224342F08042C0F8002B1944D1F8D9
:104A3000082B9207FBD50222C1F8082BD3F80428D3
:104A400042F48062C3F80428BAE700BF3C7B000848
:104A5000431E2DE9F74F584258410001204B214D8C
:104A600053F80080DFF880B008EB41130027D3F83B
:104A70001039C3F3C9494B1C08EB03330C464FEA0A
:104A8000411A00933E4605EB4115BBB2994503D848
:104A9000304603B0BDE8F08F08EB0A016B8BD1F80C
:104AA000102992B2934228BF1346D1F818290BEA75
:104AB00082029342ECD868691E44B6B228B10099CC
:104AC0001A4601F004F80137DFE72A69019321460D
:104AD000404600F090FD2A69019B1A442A61F2E7E2
:104AE0003C7B000884380020FCFF030000F1FF3C01
:104AF000F8B5DCF1000343EB0C0314461B012D4A0F
:104B00000E46D55884F00102002942D12A4F37F8C9
:104B10001430402B194628BF40215B1A27F8143067
:104B2000012306EB021205EB4212C3F3090341EA2B
:104B3000C343C2F81039D2F800391F46C7F30747FC
:104B4000C3F3076C07F00C076CF07B0C042F6CF3BD
:104B50001F6307D1D5F80878FF054CBF43F0805399
:104B600043F00053012CAF6CC2F8003910D179B179
:104B70003146FFF76DFF5EB1104B03EB46131B8B05
:104B80008342C1BFD5F83438B4401C43C5F834481B
:104B9000F8BD0A4B04EB410103EB01135F8919894E
:104BA000CB19013BB3FBF7F39BB2012B38BF0123B9
:104BB000B7E700BF3C7B00087C3800208438002029
:104BC0002DE9F04F0F46411E4B424B411B01584A05
:104BD000DFF86091D658B36CB36C89B0C3F383230C
:104BE0004FEA0718013388F0100803935FFA88F33F
:104BF000029387F0010306EB432303F51063054698
:104C000001930024029AD6F818382244D340DA07D8
:104C100033D5019B03EB4412012FD2F80880C2F870
:104C200008805FFA84FA4FEA441B5FFA88F242D1A7
:104C3000D30708D55CBB404A528842B33A46214666
:104C40002846FFF753FF18F0800F16D0D6F83438F7
:104C5000E340D80711D5B34451462846FFF7F8FE84
:104C6000DBF81039C3F312033BB9D6F8343801220C
:104C7000A24023EA0203C6F83438039A0134E3B2AF
:104C80009A4209F12009BDD809B0BDE8F08F07218B
:104C9000B9F818208DF815106AF07F018DF81810FA
:104CA00007920121002205A88DF814508DF81920D3
:104CB000FEF78CFFC7E7110718D5D6F80039002B8F
:104CC00004DA002280212846FFF754FE06238DF8DF
:104CD00015301A4B8DF8145093E8030008AB03E924
:104CE0000300012105A8FEF771FFC6E7D307C4D56D
:104CF00028F4FF4323F05F039BB2002BBDD144B9DE
:104D00000D4B1B882BB1224621462846FFF7EEFEAD
:104D1000B3E7B9F808300793072200238DF8145041
:104D20008DF815208DF818A08DF81930D9E700BF3F
:104D30003C7B0008843800207C3800207438002038
:104D4000084B03EB001393F90430002B08DB01221E
:104D5000590903F01F0302FA03F3034A42F8213012
:104D6000704700BF3C7B000800E100E00A4B03EB0A
:104D7000001393F90430002B0DDB5A09012103F0D5
:104D80001F03994002F12003044A42F82310BFF3A5
:104D90004F8FBFF36F8F70473C7B000800E100E04E
:104DA000431E5842584100010F4B1B58D3F80428AA
:104DB00042F00102C3F8042808225A619A6942F0BD
:104DC00008029A61094A4FF47A711268B2FBF1F253
:104DD000013A06D2D3F8042822F00102C3F80428CD
:104DE000704700BFF4E700BF3C7B000804070020C9
:104DF000431E584258410001044B1A58D2F8043857
:104E000023F00203C2F80438704700BF3C7B00085F
:104E1000431E584258410001044B1A58D2F8043836
:104E200043F00203C2F80438704700BF3C7B00081F
:104E3000421EF8B5534253411B01254AD458254B15
:104E400000260546012120461E605E6000F02CFB16
:104E50003246014607462846A36C00F02DFB064665
:104E600040B94FF0E023D3F8F03DDB0700D500BE9A
:104E70003046F8BDD4F800383FB3A26C02F0C0024F
:104E8000802A23F0030301D143F4804343F0040359
:104E9000C4F800382846FFF7BBFFE36823F0C0439F
:104EA00043F08043E360236823F0D00343F0C00362
:104EB0002360A269084B1343A361A36843F08103F5
:104EC000A3602846FFF794FFD2E743F00303DDE732
:104ED0003C7B00087C38002004300080431E584290
:104EE0005841084A084BD17100011B5831B10822C2
:104EF0005A619A6942F008029A6170479A6922F0F1
:104F00000802F9E77C3800203C7B000870B58A88ED
:104F10000C46C2F30A0289780646FFF76BFC054689
:104F200040B94FF0E023D3F8F03DDB0700D500BED9
:104F3000284670BD21463046FFF7D0FCF8E7000058
:104F4000411E4A424A41F8B51201224B9C5803EBDC
:104F50000013054600201F7AFEF75EFF1E4B1F4A16
:104F6000002098714FF00113C4F81C380121CBB216
:104F70009F421AD904EB41132032D3F80069002E66
:104F8000BEBFD3F8006946F09046C3F80069D3F875
:104F9000006B5083002EBEBFD3F8006B46F09046E6
:104FA000C3F8006B01315081E1E74FF48463236162
:104FB00023699B06FCD410232361266916F0100692
:104FC000FBD12846FFF76AFC3046BDE8F840FEF703
:104FD00031BF00BF3C7B00087C38002084380020B3
:104FE0002DE9F0478046002092461F4601F00F0948
:104FF000CC09FEF711FF104B04EB49052A0103EB26
:1050000005156E8996B143F802A000236B602B7BD7
:105010002F816B73B9F1000F02D1084B23F8147084
:10502000224649464046FFF761FD01260020FEF773
:1050300001FF3046BDE8F087843800207C3800202E
:10504000421E534253411B01074AD258D2F800383E
:1050500023F4FE6343EA0113C2F8003800231A4622
:105060008021FFF7BDBF00BF3C7B0008421E38B562
:10507000534253411B01054A0C46D5580122FFF704
:1050800079FC210708BFAB6C38BD00BF3C7B000832
:10509000431E58425841CB0983F0010301F00F0130
:1050A00001EB03110001084B1B5803EB4113D3F82C
:1050B000002922F40012C3F80029D3F8002942F095
:1050C0008052C3F8002970473C7B0008411E4B42C8
:1050D0004B411B01B84A2DE9F04FD458A3696669CA
:1050E0001E400546F00487B073D54FF480536361CA
:1050F0000120FEF791FEA76CB0484FF480720021AA
:1051000000F052FDAE4AC7F3832700230137D38056
:1051100004EB43110133D1F8002B42F00062C1F8D7
:10512000002BDAB2BA42F3D3002304EB431201336B
:10513000D2F800190029BEBFD2F8001941F0904101
:10514000C2F80019DAB29742EFD84FF00113C4F851
:105150001C380923C4F81438C4F810384FF4846399
:10516000236123699A06FCD410232361276917F071
:105170001007FBD12846FFF791FBD4F8003867F3FE
:105180000A13C4F80038D4F8003923F00303C4F834
:105190000039D4F8003B23F00303C4F8003BD4F8F3
:1051A0000039C4F80039D4F8003BC4F8003B834B05
:1051B00040225A835A81A36CD4F8103B43F0C04379
:1051C000C4F8103BA36943F4E013A3610120FEF788
:1051D00031FEB3041ED54FF4005363614FF40063F6
:1051E0006361A36943F40063A361D4F8082812F053
:1051F000060FC2F3410300F0CB809F1E7B427B4130
:10520000012103A88DF80C508DF80D108DF8103089
:10521000FEF7DCFC30050FD54FF400636361A36932
:1052200023F40063A3610121042303A88DF80C502B
:105230008DF80D30FEF7CAFC002E0FDA4FF0004358
:105240006361A36943F40063A3610121052303A8FB
:105250008DF80C508DF80D30FEF7B8FC71070CD5A9
:1052600067687A0708D50223012103A88DF80C503E
:105270008DF80D30FEF7AAFC676033071AD50823B6
:105280006361A3694E4A43F40063A361D4F808380C
:10529000D279C3F30D231AB9A26922F00802A261E0
:1052A0000322012103A88DF80C508DF80D200493E2
:1052B000FEF78CFCF70619D5A369DFF800B123F0DF
:1052C0001003A36104F5805A276AC7F34342042AF6
:1052D00007F00F0966D0062A5CD0022A78D06269EE
:1052E000D006F1D4A36943F01003A361310303D5C1
:1052F00000212846FFF764FC720303D501212846EC
:10530000FFF75EFCF30240D54FF480136361D4F8DD
:105310000838A76C294EDFF8ACA0C7F38327C3F386
:10532000002901374FF0000848F2040B04EB481144
:10533000D1F800390AEA13425A451ED1C3F300429C
:105340004A451AD1727F002A72D0013AB6F818C0C5
:105350007277728B0CEB02000138B0FBF2F01A4A44
:1053600002EAC04242EA0C02C1F81029B9F1000F6A
:105370005BD043F08053C1F8003908F101085FFAAF
:1053800088F3BB4206F12006D0D307B0BDE8F08F0A
:10539000022335E70D4BDAF800201A60DAF8002016
:1053A0005A609CE704EB4919D9F8102B42F0C0422F
:1053B000C9F8102B93E700BF3C7B0008843800201D
:1053C0007C3800200C80FFFF0000F81F743800209C
:1053D000C7F30A174FEA491847B10BEB08025068A8
:1053E0003A46B8B104F5805100F0AAFB0BEB080275
:1053F0005189B9427FF673AFA0441189D8F8100BD8
:10540000091A1181B9F1000F7FF469AF154AA2F8AA
:10541000009064E75BF80810204600F0CDF85BF8D8
:1054200008203A444BF80820E0E743F00053A2E795
:1054300068F07F01C9B22846CDE90012FFF79AFA59
:105440000099019A8DF810100723012103A88DF807
:105450000C508DF80D3005928DF81110FEF7B6FB4B
:105460008BE700BF7C3800200369002BFCDA036C5B
:10547000026942F0010202619BB244F209229342A6
:1054800006D80369DA07FCD40369002BFCDA7047FD
:1054900003699B00FCD5036923F0005323F001034B
:1054A00043F000530361EFE7806CC0B23F2894BF24
:1054B000002001207047000000F1FF3CDCF10000FB
:1054C00040EB0C00394B000110B51858036C144622
:1054D000374A6FF30F03934214D0364A934211D0E8
:1054E00002F5803293420DD04FF0E023D3F8F02D37
:1054F000D10700D500BED3F8F03DDA0700D500BED5
:10550000002010BD836823F00103836000293CD094
:10551000C168836C026D03F0C003802B03BF21F4CC
:10552000681121F0C80141F0100121F05801C1605B
:10553000FFF79AFF21F4705141F41051C160836B61
:1055400043F450238363C36843F00703C360D0F878
:10555000003E23F00F03C0F8003E4FF48463036164
:1055600003699B06FCD410230361036913F0100345
:10557000FBD14FF0FF3242614260836184B18368A6
:1055800043F0260383600120BBE7C16841F040037C
:10559000C36021F47051FFF767FF41F4A251CDE7DA
:1055A000836943F010038361EDE700BF5C7B000873
:1055B0000000544F00003155F0B5950801EB85040B
:1055C0000B4600F58056A34211D1D6B212F0030269
:1055D0000CD000F58050036801F82530B10744BFB6
:1055E000190A6170032A04BF1B0CA370F0BD376851
:1055F00043F8047BE7E7F0B501319D080E0302EBA9
:10560000850700EB01311446BC4209D1D9B213F031
:10561000030304D0890708D412F825208251F0BD75
:1056200054F804CBC1F800C0EEE7032B32F8252074
:1056300004BFA37842EA0342F0E70378024613F07E
:10564000010011D11378C3F380015B070FD41378E5
:1056500013F001000AD113785B0708D4137843F0E4
:1056600004031370012070470020704708467047FC
:1056700002780346C2F38000520709D51A7812F067
:10568000010104D11A7861F382021A707047002078
:105690007047000030B5C478858804F00304022CFC
:1056A000C5F30A030CD0032C31D0012C14D10229EC
:1056B00040F2FF3208BF4FF480629A4216D204E0F3
:1056C00002290BD1B3F5007F10D04FF0E023D3F8BF
:1056D000F03DDA0700D500BE002030BD42B1B3F581
:1056E000007F05D140230371002343710120F4E7BB
:1056F000202B0AD815F4FF6FE7D0074A083B9BB26E
:1057000022FA03F3DB07F1D4DFE7402BDCE70229C1
:1057100018BF4022CEE700BF0101000130B50A44A6
:10572000914200D330BD4C78052C06D18C7804F022
:105730000F0500EB4505E4092B550C782144EFE7F4
:105740000A4492B291424FEA400001D8824201DB02
:10575000121A92B21046704738B50546D41A084658
:10576000A988A4B29A423CBF04EB4104A4B2B4B1EC
:10577000A14205D2914294BF521A521893B26B8142
:10578000994209D9EA882968C2F30E0202FB031183
:1057900000F036FA012038BD5B1A9BB2F0E72046D4
:1057A000F9E7930813B501EB8303044699420BD143
:1057B00012F0030206D0002301A8019300F020FAA2
:1057C000019B236002B010BD51F8040B2060EDE78F
:1057D0002DE9F347BDF8284085881E1BB6B2A342C9
:1057E0003CBF06EB4506B6B280460F4666B3B542EF
:1057F00006D29D4294BF5B1B5B199CB244812E462E
:10580000964228BF1646A54222D9B8F806209DF830
:105810002C10D8F800A0281B751BC2F30E032544DA
:1058200080B210FB03F915FB03F501291A461FFA94
:1058300089F9ADB203FB04A418D086420BD8724399
:105840002146384600F0DCF9304602B0BDE8F0876A
:10585000641BA4B2D7E74A462146384600F0D0F987
:10586000D8F800102A4607EB0900EBE7864207D874
:1058700016FB03F292B221463846FFF792FFE3E7A8
:1058800029F003011FFA81F8424621463846FFF706
:1058900088FF19F003091CD0C9F104039BB2AB4285
:1058A0004FF0000228BF2B4604EB0801ED1A0192CD
:1058B00001AAADB201EB09041046A1420ED14A443F
:1058C0005344A2EB0A029A450AEB02010BD1019B59
:1058D0003B60002DB8D02A465146CDE711F801CBE8
:1058E00000F801CBE9E71AF8010B0870EBE713B5F4
:1058F000930800EB8303984209D112F0030204D00D
:105900000B68019301A900F07BF902B010BD0C688F
:1059100040F8044BEFE72DE9F74F07461646FA79B2
:1059200000897D89BC88D209884680B2ADB211D188
:10593000A84236BFC5EB4405451B2D18ADB2A542A4
:1059400080F0A080621B92B2B24228BF324696B26B
:1059500005460AE0A64234D32BB9FA88361BC2F3B7
:105960000E0202FB061844B326462946A1423AD24B
:10597000FA88D7F800E0A4EB010C341BC2F30E0048
:105980001FFA8CFC0C441CFB00F914FB00F4012BE7
:1059900002461FFA89F9A4B200FB01EA30D0B445EF
:1059A00024D372434146504600F02AF9B888324663
:1059B0002946FFF7C5FE34463881204603B0BDE8CE
:1059C000F08FA8424FEA440136BF4A1B421B12180F
:1059D00092B232448A42BBDBA21B92B229462046D5
:1059E000FFF7AEFEB4E7091B89B2BFE74A4641465E
:1059F000504600F005F93868224608EB0901D3E764
:105A0000B44507D310FB06F292B241465046FFF769
:105A10006EFFCBE729F0030B1FFA8BFB5A4641467A
:105A20005046FFF764FF19F0030929D0C9F10403B8
:105A30009BB2A34228BF2346D8F800200192E41A63
:105A40000BF1FF3B01A8A4B2DA44494602460139F2
:105A500010F801CB0AF801CF11F0FF01F7D1386837
:105A60004A440344121A984200EB020104D1002C6C
:105A70009CD022464146CAE7097800F8011BF2E7AC
:105A80003868F4E7002498E703894289818892B254
:105A90009BB2934236BFC2EB41029B1A9B189BB24A
:105AA00099428CBF0020012070470289438910B5BC
:105AB0009BB2044692B2FFF74FFE6189034602464D
:105AC00089B2A088FFF73CFE6081184610BD73B50F
:105AD000038945890126ADB20446CDE900569BB243
